:020000040800F2
:1000000008060020C5000008CD000008CF00000849
:1000100000000000000000000000000000000000E0
:10002000000000000000000000000000D1000008F7
:100030000000000000000000D30000087F18000846
:10004000D700000800000000D7000008D700000813
:10005000D7000008D7000008D7000008D700000824
:1000600000000000D7000008D7000008D7000008F3
:10007000D7000008D7000008D700000800000000E3
:10008000D70000080000000000000000BD1B0008B1
:1000900000000000D7000008D7000008D7000008C3
:1000A00000000000D700000800000000D700000892
:1000B0000348854600F02AF800480047E91C00087C
:1000C000080600200448804704480047FEE7FEE792
:1000D000FEE7FEE7FEE7FEE7DD180008B1000008D6
:1000E00030B50B46014600202022012409E00D46D0
:1000F000D5409D4205D31D469540491B2546954058
:1001000040191546521E002DF1DC30BD064C01256C
:10011000064E05E0E36807CC2B430C3C98471034AF
:10012000B442F7D3FFF7C8FF243B0008443B000864
:1001300070B504460068816849071FD58168490782
:1001400006D58168890703D4816810221143816034
:1001500000F0B2FB05460DE000F0AEFB401B0228AC
:1001600008D9042141200155606C012108436064D5
:10017000084670BD206880684007EDD4002070BD3F
:10018000F8B50446006881688907890F012928D1DC
:100190000168C90702D1C168090422D58168052216
:1001A000254611400426403501290FD181680222DD
:1001B0001143816021680320086000F07DFB074641
:1001C0000BE000F079FBC01B022806D96E70606C52
:1001D0000121084360640846F8BD20688068C007B4
:1001E000EFD10020F8BD0000F8B5044600200090D3
:1001F000206881688907890F012905D10168C9072D
:1002000027D1C168090424D48168134A25461140C6
:1002100040350126002910D1816831438160009862
:10022000401C00903028FAD300F046FB07460BE054
:1002300000F042FBC01B022806D904206870606CE5
:10024000304360640120F8BD20680068C043C007E7
:10025000EED10020F8BD00001700008070B500202E
:100260001D4D01468200401CC0B2A9502828F9D378
:100270001A48012202601203426081600146FF3881
:100280000026C53800F032F800241348843800F006
:10029000CDF911480A21843800F098F90E488438C5
:1002A00000F0DEF8152805D10B48843800F0DBF8A3
:1002B000A1006850641CE4B2282CE6D30021880019
:1002C0002858491C8619C9B22829F8D32821304654
:1002D000FFF706FF70BD0000B8000020F801002005
:1002E0000020401CC0B20428FBD37047F8B500249E
:1002F0000246403200941378012B26D0012313705C
:1003000003689D686D0754D42D4F4E682D4DBE4235
:1003100033D00F780126BE409E6203688E685F6905
:100320007F077F0FBE4208D05E69F608F6005E6167
:10033000006843698E68334343610868102806D01B
:10034000122811D0112813D036E00220F8BDA86879
:100350000121C9050843A860FF20E1300099491C2C
:1003600000918142FAD327E0A8680121090602E042
:10037000A86801218905084319E09E6A0F780120C9
:10038000B84086439E620868102804D0122806D020
:10039000112808D010E0A8680121C90506E0A86866
:1003A0000121090602E0A868012189058843A860A7
:1003B00002E0042050700124002010702046F8BD97
:1003C0000110000000270140F8B5040040D00220D1
:1003D0002646403670702046FFF7AAFE00270546E5
:1003E000012832D02046FFF7CBFE054601282CD04D
:1003F00001207070206841689F229143416020680D
:1004000002602068C168134A1140C1602068016918
:1004100089008908016120684169C908C9004161F2
:100420002068016A0C4A114001622068816AC90C87
:10043000C90481620948816807229205914381605D
:10044000204600F093F86764777037702846F8BD4F
:100450000120F8BD00023E8300F000F000270140BB
:100460004030407870470268082111600068006CD5
:100470007047000070B500260446002805D02546C8
:1004800040356878002802D004E0012070BD204685
:1004900000F080F868780422042861D02068816820
:1004A00049075DD40221697081688907890F012994
:1004B00005D10168C9070BD1C168090408D40169D5
:1004C0008900890801612068016963681943016135
:1004D0002068C168234B1940C160A069E1698003AD
:1004E000C9030843216A4B031843636B012B02D0F5
:1004F00001231B0300E000231843E3681843A368AB
:1005000018432369022B08D000231843236B5B0098
:100510001843636A012B02D006E00423F5E70029A3
:1005200002D1012109040843A16A102902D0E36A1B
:10053000194308432168CB680343CB602168C9682D
:10054000094B19400123814203D1002060646B7084
:1005500004E06A70606C184360640126304670BD28
:100560006A70FAE70102FEFFFFFF3F8310B50068E3
:100570000649884209D10648816942159143816143
:1005800009200321C00600F083F810BD00240140BB
:100590000010024000B500680A4985B088420ED1BB
:1005A000094881694215114381610320009001903F
:1005B0000020029009206946C00600F0D1F805B07D
:1005C00000BD00000024014000100240F8B50446C0
:1005D00040690D46082806D00C2700F06DF9264624
:1005E0004036009011E00827F7E7681C0DD0002D79
:1005F00005D000F061F90099401AA84205D90320FE
:100600007070002030700120F8BD2068006838420A
:10061000EBD0A069002802D121680C200860707816
:10062000042801D0152070700020F8BD70B5044674
:1006300021680020896849071CD42546403529785F
:10064000012917D001212970E1690026012904D070
:100650002046FFF7C9FD01280AD01221697066649F
:1006600022681C21116021688A6804231A438A6069
:100670002E7070BD022070BD31B500F01DF904462A
:1006800000F01AF90099001B8842F9D338BD000028
:10069000F0B58E46002254E0012393409C467146FB
:1006A0000B404DD0016855000324AC40A1430160CC
:1006B000D10889000D182F6A5607F10E0F268E40BB
:1006C000B7432F628168A143816041686546A943B1
:1006D0004160C168A143C16094081C49A40064182A
:1006E000A16895072E0F0F25B5402F460F40092111
:1006F000C906884201D100210FE01549884201D185
:1007000001210AE01349884201D1022105E0124982
:10071000884201D1032100E00521B140B9420FD147
:10072000A168A943A1600D490C689C430C604C680A
:100730009C434C608C689C438C60CC689C43CC6030
:10074000521C7146D140A7D1F0BD0000000001400D
:100750000004004800080048000C00480004014064
:10076000F0B500228AE001249440A44623407DD0C5
:100770004C68022C01D0122C0CD1D408A4002518EE
:100780002F6A5407E40E0F26A640B7430E69A64011
:100790003E432E62066855000324AC400F79A64301
:1007A000BF07BF0FAF40374307604E68012E05D02B
:1007B000022E03D0112E01D0122E0ED18668CF68E2
:1007C000A643AF403743876047686646B7430E7914
:1007D000F606F60F96403E434660C668A6438C6810
:1007E000AC403443C4604C68E40046D5264DAC6947
:1007F00001263443AC619508244CAD002F19BD6827
:100800009407240F0F26A640B5430926F606B042EA
:1008100001D100260FE01E4EB04201D101260AE0B0
:100820001C4EB04201D1022605E01B4EB04201D160
:10083000032600E00526A6402E43BE60174D2C6817
:100840004E689C43F60300D51C432C606C684E68D0
:100850009C43B60300D51C436C60AC684E689C4357
:10086000F60200D51C43AC60EC6800E005E04E6881
:100870009C43B60200D51C43EC60521C0B681C461E
:10088000D44000D06FE7F0BD0010024000000140EE
:100890000004004800080048000C00480004014023
:1008A0000069084000D001207047002A01D0816112
:1008B00070470904FBE7000001480068704700002A
:1008C0000000002002480168491C016070470000D8
:1008D0000000002010B50648016810221143016095
:1008E000002000F007F800F017F8002010BD00000D
:1008F0000020024010B5044600F0F8F87D21C90040
:10090000FFF7EEFB00F0F4FA00222146501E00F043
:100910001BF8002010BD000010B5054881690122B8
:100920001143816100221146501E00F00DF810BDE8
:1009300000100240C106C90E01208840014908602C
:100940007047000000E100E010B500F0DBFE10BDD4
:10095000F8B5044662480F460068F021C007C00F92
:10096000604EB84254D25E480268520852003A4380
:1009700002600068C007C00FB8426ED120788007BF
:1009800004D570688843A168084370602078C00768
:1009900028D06068012814D03168022814D0890753
:1009A00000295ADA71688908890001437160FFF7EC
:1009B00083FF0546606801280ED04B4F022817D0F0
:1009C00021E031688903EBE78901E9E7FFF774FF6C
:1009D000401BB84201D961E0434F70680007800FA7
:1009E0000128F3D16DE0FFF767FF401BB84255D8EF
:1009F00070680007800F0228F5D162E0FFF75CFF06
:100A0000401BB8424AD870680007800FF6D158E002
:100A10002078800704D570688843A1680843706017
:100A20002078C00740D06068012813D031680228C0
:100A300014D08907002942DA7168890889000143C6
:100A40007160FFF739FF0546606801280ED0022863
:100A500018D025E031688903ECE730E08901E9E747
:100A6000FFF72AFF411B2048814217D87068000712
:100A7000800F0128F4D117E0FFF71EFF411B1A4831
:100A800081420BD870680007800F0228F4D10BE078
:100A9000FFF712FF411B1448814201D90320F8BD22
:100AA00070680007800FF3D10D48016849084900BC
:100AB000394301600068C007C00FB84201D001206F
:100AC000F8BD2078400706D57068072109028843E1
:100AD000E168084370600020FFF70CFF0020F8BDBC
:100AE00000200240001002408813000010B500F002
:100AF00011F805494968054A0906090F515CC840C3
:100B00000349086010BD000000100240E01E00080C
:100B10000400002010B50F4B5A680C20114601400C
:100B20000D48042902D0082901D00C4810BD9102BB
:100B30000B4C090F645CD96A094B0907090F103384
:100B4000595CD20303D5FFF7CBFA604310BD0548CB
:100B5000604310BD001002400080BB0000127A000C
:100B6000F01E000800093D0070B5104C86B06069A9
:100B700016460D4601214904084360614812009061
:100B8000022001900320039000200290049009208D
:100B90006946C006FFF7E4FD60687F2109068843C7
:100BA00035432843606006B070BD0000001002406D
:100BB000F8B504460078C44DC00740D06868000707
:100BC000800F012807D068680007800F022809D12C
:100BD0006868C00306D52868800330D5606801289E
:100BE0007BD12CE00020A870FFF766FE0646B74FC9
:100BF00004E0FFF761FE801BB8426FD828688003CD
:100C0000F7D42079A870606800280CD0FFF754FE54
:100C1000064604E0FFF750FE801BB842EDD8286876
:100C20008003F7D50BE0FFF747FE064604E0FFF729
:100C300043FE801BB842E0D828688003F7D42078B0
:100C400080073CD568680007800F07D068680007F8
:100C5000800F022809D16868C00306D4286880077D
:100C600016D5E0680128BBD112E0E06800282868AA
:100C700016D0012108432860FFF71EFE064604E057
:100C8000FFF71AFE801B6428B7D828688007F7D5BD
:100C90002868F82188432169C900084328600EE0CC
:100CA000400840002860FFF707FE064604E0FFF713
:100CB00003FE801B6428A0D828688007F7D420781A
:100CC000000724D5206A0028686A11D00121084352
:100CD0006862FFF7F1FD064606E0F2E092E0FFF7FA
:100CE000EBFD801B642888D8686A8007F7D50EE082
:100CF000400840006862FFF7DFFD064604E0FFF7AA
:100D0000DBFD801B64287DD8686A8007F7D42078D3
:100D1000400748D5E869012109070843E8616C4F9D
:100D20003868091508433860FFF7C6FD064604E039
:100D3000FFF7C2FD801B642864D83868C005F7D56A
:100D4000286A052188432862FFF7B6FD06465F4FF3
:100D500004E0FFF7B1FD801BB84253D8286A800732
:100D6000F7D4286A05218843A16808432862A0684F
:100D7000012803D0FFF7A0FD064611E0FFF79CFD18
:100D8000064604E0FFF798FD801BB8423AD8286A6F
:100D90008007F7D507E0FFF78FFD801BB84231D8F9
:100DA000286A8007F7D42078C0063ED56069042100
:100DB00001280CD0401D686B25D008436863686B20
:100DC000400840006863FFF777FD06462AE0686B3D
:100DD00008436863686B012108436863FFF76CFD93
:100DE000064604E0FFF768FD801B642862D8686B44
:100DF0008007F7D5696BF8208143A069C0000143E3
:100E0000696312E056E088436863686BF8218843A1
:100E1000A169C9000843686307E0FFF74DFD801B27
:100E2000642847D8686B8007F7D4606A002846D0EA
:100E300069680907890F022943D001273F06022864
:100E4000286805D0B8432860FFF736FD044633E034
:100E5000B8432860FFF730FD064604E0FFF72CFD9D
:100E6000801B642826D828688001F7D4E86AE16AE4
:100E7000000900010843E862A16A206B0843696821
:100E80003D22120491430843686028683843286073
:100E9000FFF712FD044604E0FFF70EFD001B642877
:100EA00008D828688001F7D509E0FFF705FD001B89
:100EB000642801D90320F8BD28688001F5D40020FA
:100EC000F8BD0120F8BD00000010024088130000AA
:100ED00000700040042204490428086902D09043AD
:100EE000086170471043FBE700E000E07047000036
:100EF000094910B5401E884201D9012010BD074C98
:100F000060610321081F00F0FDFB0020A0610720A5
:100F10002061002010BD0000FFFFFF0000E000E0A6
:100F200010B5FFF7E3FF10BD7047704770B50400C0
:100F300005D025462035687E002802D004E0012037
:100F400070BD204600F00AF802206876211D206856
:100F500000F042FE01206876002070BD10B50068E8
:100F6000084988420CD10848C16982151143C16102
:100F7000002211461320FFF7E7FC1320FFF7DAFCED
:100F800010BD000000200040001002400168CA6847
:100F900001231A43CA6000680168194301600020F8
:100FA0007047704770B50446006801690025C94361
:100FB0008907002915DBC168C943890711D4E91ED7
:100FC000016101202076206880698007204602D0D8
:100FD000FFF7E7FF04E000F096F8204600F094F8F1
:100FE000257620680169C943490717D4C168C943F8
:100FF000490713D40421C9430161022020762068E7
:1010000080698005800F204602D0FFF7CAFF04E008
:1010100000F079F8204600F077F82576206801691D
:10102000C943090716D4C168C943090712D4082166
:10103000C9430161042020762068C06980072046EA
:1010400002D0FFF7AEFF04E000F05DF8204600F0AC
:101050005BF8257620680169C943C90617D4C168C1
:10106000C943C90613D41021C94301610820207661
:101070002068C0698005800F204602D0FFF791FFED
:1010800004E000F040F8204600F03EF825762068A5
:101090000169C943C90708D1C168C943C90704D157
:1010A000891E0161204600F030F820680169C943BB
:1010B000090609D4C168C943090605D48021C9437A
:1010C00001612046FFF730FF20680169C9434906E6
:1010D00009D4C168C943490605D44021C943016107
:1010E000204600F013F820680169C943890609D435
:1010F000C168C943890605D42021C943016120463E
:10110000FFF713FF70BD70477047704770470000CE
:10111000F8B50221F848FFF7C3FB01270025F74E79
:1011200000282FD00121F448FFF7BAFB002829D06E
:1011300009208021C006FFF7B3FB002822D0F04829
:10114000007800281ED00024EE4960004318095C96
:10115000012258205B1C00F088FD641CA4B22B2CDB
:10116000F2D30024E84960004318095C01225820AA
:101170005B1C00F07AFD641CA4B2172CF2D3E0488B
:1011800005707CE10221DC48FFF78AFB00282FD0A4
:101190000121D948FFF784FB002829D009208021AC
:1011A000C006FFF77DFB002822D1D5480078012832
:1011B0001ED00024D54960004318095C0122582044
:1011C0005B1C00F052FD641CA4B22B2CF2D3002453
:1011D000CD4960004318095C012258205B1C00F0D7
:1011E00044FD641CA4B2172CF2D3C548077046E135
:1011F0000221C148FFF754FB002830D00121BE482E
:10120000FFF74EFB00282AD109208021C006FFF7F6
:1012100047FB002823D0BA48007802281FD00024BA
:10122000B8496000AC314318095C012258205B1CAE
:1012300000F01BFD641CA4B22B2CF1D30024B24996
:1012400060002E394318095C012258205B1C00F015
:101250000CFD641CA4B2172CF1D302210DE1022174
:10126000A548FFF71DFB002830D00121A248FFF759
:1012700017FB00282AD109208021C006FFF710FBA8
:10128000002823D19E48007803281FD000249F49BE
:101290006000AC314318095C012258205B1C00F04F
:1012A000E4FC641CA4B22B2CF1D30024964960000A
:1012B0002E394318095C012258205B1C00F0D5FC34
:1012C000641CA4B2172CF1D30321D6E002218A4872
:1012D000FFF7E6FA00282FD101218748FFF7E0FA4F
:1012E000002829D009208021C006FFF7D9FA00285C
:1012F00022D08348007804281ED000248149600051
:1013000056314318095C012258205B1C00F0ADFCEB
:10131000641CA4B22B2CF1D300247B496000431839
:10132000095C012258205B1C00F09FFC641CA4B2E5
:10133000172CF2D30421A0E002216F48FFF7B0FA86
:1013400000282FD101216C48FFF7AAFA002829D0E4
:1013500009208021C006FFF7A3FA002822D168489F
:10136000007805281ED000246849600056314318D3
:10137000095C012258205B1C00F077FC641CA4B2BD
:101380002B2CF1D30024604960004318095C012232
:1013900058205B1C00F069FC641CA4B2172CF2D32B
:1013A00005216AE002215448FFF77AFA00282FD17C
:1013B00001215148FFF774FA002829D10920802122
:1013C000C006FFF76DFA002822D04D4800780628A5
:1013D0001ED000244D49600056394318095C012293
:1013E00058205B1C00F041FC641CA4B22B2CF1D3F0
:1013F0000024454960004318095C012258205B1C09
:1014000000F033FC641CA4B2172CF2D3062134E0A4
:1014100002213948FFF744FA002836D10121364825
:10142000FFF73EFA002830D109208021C006FFF7DF
:1014300037FA002829D132480078072825D000241F
:101440003149600084394318095C012258205B1C33
:1014500000F00BFC641CA4B22B2CF1D300242A490D
:1014600060004318095C012258205B1C00F0FDFB62
:10147000641CA4B2172CF2D3072121480170F57027
:10148000B5707570B5713571757109204021C00650
:10149000FFF706FA00280AD009204021C006FFF70E
:1014A000FFF9002858D0F078002843D052E00924F2
:1014B000E40620212046FFF7F3F97178084309D0AC
:1014C00020212046FFF7ECF9002831D0B078002821
:1014D0001ED02DE000240B4960005C394318095CE4
:1014E000012258205B1C00F0C0FB641CA4B2172C26
:1014F000F1D37770B5701BE0000400482D00002088
:101500002C0000207620000854230008CE2100087B
:1015100000243F4960004318095C012258205B1CED
:1015200000F0A3FB641CA4B2172CF2D3B770757043
:10153000F57011E00024364960005C394318095CFD
:10154000012258205B1C00F090FB641CA4B2172CF5
:10155000F1D3F770B57075700924E40610212046A8
:10156000FFF79EF9002809D010212046FFF798F9CF
:10157000002838D0B079002836D045E00821204630
:10158000FFF78EF93179084309D008212046FFF78B
:1015900087F9002826D07079002812D022E0002494
:1015A0001B496000B8394318095C012258205B1CB4
:1015B00000F05BFB641CA4B2172CF1D3377175717A
:1015C00010E00024124960008A394318095C0122A6
:1015D00058205B1C00F049FB641CA4B2172CF1D30B
:1015E00035717771B571F8BD002409496000E6399D
:1015F0004318095C012258205B1C00F036FB641C78
:10160000A4B2172CF1D3B77135717571F8BD000014
:101610004820000810B50D480B49016000214160C9
:101620000446012204230C3481600EC48161C1612F
:1016300001624162C16242630163FEF7C5FE034875
:10164000FEF718FF10BD0000002401403400002008
:10165000F0B5294885B041690122920511434161E5
:101660004169521111434161416952001143416185
:1016700022480125022603276A46E1C2092069465D
:10168000C006FFF76DF878020090112001AAA1C2F0
:1016900009206946C006FFF763F8F8200024694670
:1016A00031C109206946C0060394FFF759F8009735
:1016B000134F01946946029503943846FFF750F89A
:1016C000280200900920029403946946019604942C
:1016D000C006FFF745F898206A46039461C2694640
:1016E0003846FFF73DF860206A4631C26946384601
:1016F000FFF736F805B0F0BD001002400498000076
:10170000000400488307FF22DB0E9A408907090E78
:10171000994000280BDA0007000F083883080848B2
:101720009B001818C36993430B43C3617047830838
:1017300004489B001818036893430B4303607047E9
:1017400000ED00E000E400E0F1B50926802500246A
:10175000F60686B0AF0028460699E040084201D15F
:10176000002200E00122012189023046FFF79DF8A6
:10177000FEF7B6FD012239463046FFF796F8FEF730
:10178000AFFD002239463046FFF78FF8FEF7A8FD7F
:10179000641CE4B2082CDED30020019001208402F6
:1017A000032502906946039500943046FEF7D8FF62
:1017B000FEF796FD012251023046FFF776F82146EA
:1017C0003046FFF76DF8002817D00027FEF788FD98
:1017D0000121002249023046FFF767F811200190ED
:1017E000022002906946039500943046FEF7B8FF48
:1017F000FEF776FD384607B0F0BD0127E6E770B585
:10180000012209259402ED0621462846FFF74DF8EE
:10181000FEF766FD0122560231462846FFF745F8DD
:10182000FEF75EFD002221462846FFF73EF8FEF750
:1018300057FD002231462846FFF737F870BD70B5D6
:10184000012209255402ED0621462846FFF72DF80E
:10185000FEF746FD6600002231462846FFF725F8D0
:10186000FEF73EFD012231462846FFF71EF8FEF73F
:1018700037FD002221462846FFF717F870BD10B546
:10188000FFF720F8FFF74CFB10BD30B591B00124F5
:1018900011200594009001941020002506900995D0
:1018A0006846FFF785F90D940F9500210DA8109556
:1018B0000E94FFF74DF80022032149061046FFF76A
:1018C00053F9FFF713F97D21C900FEF709FCFFF773
:1018D0000FFB0420FFF7FEFA11B030BD134801687A
:1018E0000122114301604168114A114041600168C1
:1018F000104A114001600168012292049143016085
:1019000041683F22120491434160C16A09090901FB
:10191000C162016BFF22143291430163416B49089C
:1019200049004163002181607047000000100240BF
:101930000CB8FF08FFFFF6FE10B5FEF78FFCFB2189
:1019400009016B4C884207D32178102904D010205C
:1019500000F052FA10200AE066494118FB2908D22B
:1019600021780F2905D00F2000F046FA0F202070B3
:1019700010BD6049FB314118FB2907D221780E299F
:1019800004D00E2000F038FA0E20F0E75A49411832
:10199000FB2907D221780D2904D00D2000F02CFA64
:1019A0000D20E4E75449FB314118FB2907D2217887
:1019B0000C2904D00C2000F01FFA0C20D7E74F4967
:1019C0004118FB2907D221780B2904D00B2000F005
:1019D00013FA0B20CBE74949FB314118FB2907D209
:1019E00021780A2904D00A2000F006FA0A20BEE76E
:1019F00043494118FB2907D22178092904D009203D
:101A000000F0FAF90920B2E73D49AB314118AB29A2
:101A100007D22178082904D0082000F0EDF9082029
:101A2000A5E73849FF2241180632914207D22178B2
:101A3000072904D0072000F0DFF9072097E7324993
:101A4000FF2241184232914207D22178062904D060
:101A5000062000F0D1F9062089E72B49FB31411817
:101A6000FB2907D22178052904D0052000F0C4F90C
:101A700005207CE7FB218900411AFB2907D2217848
:101A8000042904D0042000F0B7F904206FE71F49AF
:101A90004118FB2907D22178032904D0032000F044
:101AA000ABF9032063E70146FF39F739FB2907D279
:101AB0002178022904D0022000F09EF9022056E786
:101AC0000146FB39FB2907D22178012904D00120E6
:101AD00000F092F901204AE7FB2800D348E720787C
:101AE0000028FBD0002000F087F900203FE700002D
:101AF0002D0000204BF1FFFF41F3FFFF37F5FFFF03
:101B00002DF7FFFFDDF8FFFF1EFAFFFF0FFDFFFFC0
:101B100070B5012409252403ED060022214628463C
:101B2000FEF7C3FEC820FEF7A7FD01222146284686
:101B3000FEF7BBFE6420FEF79FFD124D124E0024FF
:101B400060004319295C012258205B1C00F08DF8CD
:101B5000641CA4B2B442F3D30C4D0D4E00246000BB
:101B60004319295C01225A205B1C00F07EF8641C9A
:101B7000A4B2B442F3D3FFF7CBFA0649FF200870B2
:101B800070BD000082230008440500000A2E0008F2
:101B90008D0600002D00002070B5074D0024600068
:101BA0004319295C012296205B1C00F05EF8641C3E
:101BB000E4B2072CF3D370BD541F000810B50448DD
:101BC000FFF7F0F903480168491C016010BD0000EF
:101BD0007C0000202800002070B50268164C174ECB
:101BE000A04201D0B04204D1134670254A68AB43ED
:101BF0001A43134B134DA04208D0B04206D0124EE8
:101C0000B04203D0984201D0A84204D10326360244
:101C1000B243CE68324302608A68C2620A68826256
:101C2000A04203D0984201D0A84201D109690163C2
:101C30000121416170BD0000002C01400004004002
:101C400000440140004801400020004002E008C874
:101C5000121F08C1002AFAD170477047002001E026
:101C600001C1121F002AFBD17047FFB5002581B0CA
:101C70001F4616462C46100023D0FFF7C0FD06E095
:101C80006D1CEDB2032D1BD80120FEF7F5FC019869
:101C9000FFF75AFD0028F3D0002506E06D1CEDB2D9
:101CA000032D0DD80120FEF7E7FC0298FFF74CFD4D
:101CB0000028F3D0002510E06D1CEDB2032D02D9F1
:101CC000002005B0F0BD0120FEF7D6FC385D641C95
:101CD000E4B2FFF739FD0028EED0B442F6D3FFF7A7
:101CE000AEFD3046EDE70000FEF7F4FDFFF7CDFD59
:101CF000FFF7AEFCFFF78EFC204C1F482060214808
:101D00001F490068FEF7ECF90025401EA5606060E1
:101D10001D482561E0602046FFF708F92046FFF7DF
:101D200035F909240121E406002209032046FEF7C3
:101D3000BCFD012204212046FEF7B7FDFF26F53643
:101D40003046FEF799FC3046FEF796FCFFF724FF7D
:101D50006420FEF791FCFFF7DBFE0122D103204651
:101D6000FEF7A3FD002208210848FEF79EFD084863
:101D7000057000F00FF8FCE7002000407C00002018
:101D800040420F000400002001040000000400484D
:101D90001800002010B50D4C20696168401A0A280F
:101DA00013D3206960602069A168401A64280CD3AD
:101DB00000F00EF82069A0602069E168401AFF2158
:101DC000F531884201D32069E06010BD1800002081
:101DD00010B508480078002807D00121092000220A
:101DE000C903C006FEF761FD10BDFFF791F9FFF7CB
:101DF000A3FD10BD1800002000B53849800085B053
:101E000008586A46010E1173010C1174010A117011
:101E1000107100201072014602AB01225820FFF71A
:101E200024FF8C206A46107202AB01227F215820C9
:101E3000FFF71BFF2A206A46107202AB0122002125
:101E40005820FFF712FF03AB012224215820FFF78F
:101E50000CFF04AB012225215820FFF706FF6B463B
:101E6000012226215820FFF700FF01AB0122272184
:101E70005820FFF7FAFE03AB012228215820FFF774
:101E8000F4FE04AB012229215820FFF7EEFE6B4639
:101E900001222A215820FFF7E8FE01AB01222B2165
:101EA0005820FFF7E2FE03AB01222C215820FFF758
:101EB000DCFE04AB01222D215820FFF7D6FE6B4635
:101EC00001222E215820FFF7D0FE01AB01222F2145
:101ED0005820FFF7CAFE05B000BD0000101F000823
:101EE00000000000010203040102030406070809C0
:101EF00002030405060708090A0B0C0D0E0F10104B
:101F00000102030405060708090A0B0C0D0E0F1049
:101F1000C164FF006A1BF100A99EE300C8DDCA008E
:101F200008CEB4007824A1004D9E8F0000008000F0
:101F30008314720089FC5F00A83E4C0038903C007E
:101F40002DF53200F32620006149140085130800A6
:101F50001B00000001000200065007400840094035
:101F6000201000007FAA0024180819751A641BF2BB
:101F70001CF71D8A1E9B1F0E20002100220023003B
:101F8000240425AF26A22722280029002A002B009E
:101F900000007FAA0024180A19A61A111BE81CF5D4
:101FA0001D591EEE1F1820002100220023002404CA
:101FB00025AF26A22722280029002A002B00000096
:101FC0007FAA0024180619B81A081BAA1CF91D4775
:101FD0001EF71F562000210022002300240425AFF5
:101FE00026A22722280029002A002B0000007FAA11
:101FF0000029380739FA3AE13B213CF03D0A3E3DE1
:102000003FBF400741FA42E14321440F45F546BA3C
:10201000475A48F8490A4A354BD700007FAA002999
:10202000380A390B3AD53B323CEB3DE83E553F9CF4
:10203000400A410B42D54332440F45F546BA475A50
:1020400048F8490A4A354BD700007FAA00293806CC
:1020500039563AB73B803CF33D523E913F01400632
:10206000415642B74380440F45F546BA475A48F8AF
:10207000490A4A354BD700007FAA00294C074DFE7C
:102080004EA54F3450F0511B521753E8540755E8F2
:10209000567057E5580F59E45AE85B185CF85D181C
:1020A0005EE95FE6600861006200630064F06571EC
:1020B000664C6787680769916AC66B226C0F6D8EE4
:1020C0006EB36F7970F8716E723973DE00007FAA9B
:1020D00000294C074DFE4E1F4F8250F0510A524CC2
:1020E0005341540755F756B45780580F59F55AB312
:1020F0005BBF5CF85D0A5E2B5FFE600861036208EF
:10210000638464F0650A66F2670C680769F26A988E
:102110006B3F6C0F6DF56E0D6FF470F8710A725FA6
:10212000733D00007FAA00294C074DFE4E6F4F6C97
:1021300050F05108529B532B540755F9561557AF81
:10214000580F59F75A645BD55CF85D085E7A5FE515
:1021500060086102628A63E764F065096649673571
:10216000680769F46AC36B636C0F6DF66EB66FCB6C
:1021700070F8710872B173B700007FAA00294C078C
:102180004DFE4EA54F3450F0511B521753E85407E3
:1021900055E8567057E5580F59E45AE85B185CF853
:1021A0005D185EE95FE6600761FC62BE631064F083
:1021B000651B66BC67AD680769E96A356B446C0FDF
:1021C0006DE46E436F5370F8711A720C73AB0000BC
:1021D0007FAA00294C074DFE4EA54F3450F0511BED
:1021E000521753E8540755E8567057E5580F59E40D
:1021F0005AE85B185CF85D185EE95FE6600761FC11
:102200006237637064F0652666796764680769DE23
:102210006AFE6B0B6C0F6DD96E866F9C70F8712423
:1022200072CA738500007FAA00294C074DFE4EAC90
:102230004F1A50F05108522153F8540755F956528D
:102240005734580F59F75ADE5B085CF85D085E0199
:102250005FB1600761FD623D63DC64F0651C66D4BC
:1022600067AD680769E76AEF6B7C6C0F6DE36E2BF7
:102270006F5370F8711A72D273A800007FAA0029F8
:102280004C074DFE4E2F4F2A50F05109521B5384DC
:10229000540755F856D55797580F59F65AE45B7CB2
:1022A0005CF85D085EFB5F3F6008610062006300F0
:1022B00064F0655A66A267A9680769A76A576B8DBB
:1022C0006C0F6DA56E5D6F5770F8715872A87373BF
:1022D00000007FAA00294C074DFE4EA54F3450F058
:1022E000511B521753E8540755E8567057E5580FDD
:1022F00059E45AE85B185CF85D185EE95FE6600730
:1023000061FB6228632D64F0651E66E4673E680722
:1023100069E76AA36B426C0F6DE16E1B6FC270F8C8
:10232000711D7234739100007FAA0028400741FBA1
:10233000426C433844F0453246104719480749D8A3
:102340004A114B1A4C0F4DCD4EEF4FE750F8512C20
:10235000528253AE00007FAA00284008410042008C
:10236000430044F04597461347434807496E4A5691
:102370004BAC4C0F4D684EEC4FBD50F8519152A9EB
:10238000535400007F000302011100000000000010
:10239000000000007F000302FE0500007F00030034
:1023A00000007F00461100007F00030200007F0054
:1023B000788000007F00610B60017D117EFF0001CD
:1023C00051050000021053005400000000000000FE
:1023D000000000007F00668C7F8C002918001980A7
:1023E0001A001B001C001D801E001F002000218001
:1023F00022002300240025802600270028002980B1
:102400002A002B002C002D802E002F0030003100E0
:10241000320033003400350036003700002A240033
:1024200025002600271B280029002A002B1B2C0032
:102430002D002E002F1B3000314432323313002C7C
:102440000C000D000E000F00100011001200130010
:102450001400158016001700180019001A001B0040
:102460001C001DE31E9E1FA9200021002200230046
:102470002400250026002700280029002A002B0020
:102480002C002DE32E9E2FA93000310032003300A6
:102490003400350036003700380039003A003B0080
:1024A0003C003DE33E9E3FA9480049004A004B00E6
:1024B0004C004D004E004F00500051E3529E53A976
:1024C0005C005D005EAE5FC360016112626E639886
:1024D0006408651366856762684069006A006B007E
:1024E0006C046DC16EFF6F93740075807600770089
:1024F000002D187B193E1A001B6D1C001D001EAE1E
:102500001FC32000210022002300240025002600F4
:102510002700280029002A002B002C002D802E00E7
:102520002F00002E242025292600279400007FAAB2
:102530000024180819751A641BF21CF71D8A1E9BCB
:102540001F0E2000210022002300240425AF26A214
:102550002722280029002A002B002C052D572E9514
:102560002FF630F5315032D43315340535573695C2
:1025700037F63809396C3AE73B783CFC3D0E3E8F24
:102580003FA140064140421143EC4402459B460BAB
:10259000478E480349C54AEA4B134CFD4D644EF43F
:1025A0004F7250FD51FA52045300540755EC56D463
:1025B00057AE58F259C75AAF5BFE5C065DFF5E5DD1
:1025C0005F93600D61386250630264F9651366CDF4
:1025D00067BF6808691D6AFE6BF56CF96DEF6E9652
:1025E0006FFF700671A8724E73DB74067510766902
:1025F000770178F979397AB27B307C077DE57ECE38
:102600007F03002508F309140A880BD00C070D344A
:102610000E9F0F49100C11EB1277133014F815E5CB
:10262000169217B4180719E31A911BFC1CF11D3DF3
:102630001E3E1F3220072128220423B3240E25C268
:1026400026C127CE28F829F42A692B522C072DC43D
:102650002E6C2FE130F731AB321833D034063551C0
:10266000369537C2380839543AE73B303CF93DE9F2
:102670003EFD3F5D400A41B942A343DF440B45ACF8
:10268000466847AD480249C14A134BC64CF44D5306
:102690004E974F5350FA51855248535B5408551882
:1026A00056EC571258F259535AB25B8C5C065D5780
:1026B0005E0F5F35600D61AC624D637464F96590C7
:1026C000660467B9680869D66A5A6B8F6CFC6DB28C
:1026D0006E8C6F8870FD711F729B73117403754D42
:1026E000767377787802790A7A0A7B607C077DDBDB
:1026F0007E877F14002608F9094F0A610B7B0C05C1
:102700000D850EB50FF5100611B0129E138514FA43
:10271000159E16C217F71808190B1AEF1B7A1CF42E
:102720001D8E1E081FCE2006216122342394240B07
:10273000257126F7273228F929922ADB2BF32C085A
:102740002D0D2EEC2F5230F231C632CA33473406EB
:10275000351C362037A1380D39393A353BB93CF9AB
:102760003DD53EF33F0D400741E8428B43F344F82B
:102770004530469A4730480549B94AA54BE34C07CE
:102780004DCF4E654FD050FA515D52CE532A54076B
:1027900055B45659577058F059975A4D5B205C07FD
:1027A0005DB45E595F70600F61686213636464F8C2
:1027B000659666AD67A4680769EE6A5F6BBC6CF1ED
:1027C0006D3B6EEE6F917007710A729E73EE740E20
:1027D00075C47611776F78F979077A017B577C0891
:1027E0007D117EE57F6B002708F009520ADC0B168D
:1027F0000C070DA20E980F0E100F11AD122313EA45
:1028000014F8154B16821787180819AE1AC51B84C1
:102810001CF41D821E791FDC200321FE229323B6A7
:10282000240B257D2686272428FB29522AA62BC681
:102830002C072DDA2E4E2F9B30F231B6322E331D5F
:102840003406357136F63775380D39493AD13BE3E0
:102850003CF93DB33EBA3FF0400741A842C3432094
:1028600044F145FC464347ED480649D34A5D4B4792
:102870004C0E4D034EBC4F1350F9518352DF539908
:10288000540755FE5608576C58F059125ACF5B65DD
:102890005C075DF15E1E5FAA600F61ED6230639BB5
:1028A00064F8651066D867EA6808693B6AD66B15F4
:1028B0006CF26DCC6EE86FA9700671C4720873FE7D
:1028C000740D75337617775778F979007A207BEC99
:1028D0007C077DAC7E5C7FF4002808F3096E0AC19A
:1028E0000B970C070D3F0E9B0F21100C1191123E00
:1028F000136914F91514160717EB1808190D1AECBB
:102900001B521CF21DC61ECA1F472006211C222076
:1029100023A1240D2539263527B928F929D52AF3ED
:102920002B0D2C082D002E002F003000310032001E
:1029300033003400350036003700380039003A00E3
:102940003B003C003D003E003F004008410042008B
:1029500043004400450046004700480049004A0043
:102960004B004C004D004E004F00500051005200F3
:10297000530054005535565657905800596A5AAD71
:102980005B205C005D355E565F90600C619762561F
:1029900063CD64FA6593664E67F26800692C6A84B9
:1029A0006B0E6C006D596E086F1C7000712C728478
:1029B000730E740C7569763277FC78FA79E47ABC18
:1029C0007BCC7C067DBB7E2D7F6000290800090042
:1029D0000A000B000C000D000E000F00100011008B
:1029E000120013001400150016001700380639569F
:1029F0003AB73B803CF33D523E913F014006415681
:102A000042B74380440F45F546BA475A48F8490A49
:102A10004A354BD74C074DFE4EA54F3450F0511B55
:102A2000521753E8540755E8567057E5580F59E4C4
:102A30005AE85B185CF85D185EE95FE660086100C3
:102A4000620063006400650066006700680069005A
:102A50006A006B006C006D006E006F00700071000A
:102A6000720073007400750076AB77A1780079016D
:102A70007A577B427C007D007EAB7FA1002A080F45
:102A800009960A470B3C0CF80D670E0A0F40100020
:102A900011001288135914001501161017B31800ED
:102AA00019001A881B591C0F1D961ED71F3820F8B5
:102AB0002166227A232C002E7C087D007E007F0078
:102AC000002F080009000A000B000C000D000E008A
:102AD0000F00100011001200130014001500160062
:102AE00017001C081D001E001F00200021002200EE
:102AF00023002400250026002700280029002A00A2
:102B00002B002C002D002E002F00002A4800492AFF
:102B10004AD64B504C004D154E6B4F28500051007B
:102B200052005300543F55D5562957AF580059000D
:102B30005A005B0000007F8C002B3400351B364BA5
:102B400037983800391B3A4B3B983C003D0D3EA668
:102B50003F864000410042004300440045004600DB
:102B6000470048FF49814A474BAE4CF94D064E217C
:102B70004FA950FE510152C05379540055005600E0
:102B80005700580059005A005B00002D580259A305
:102B90005A9A5BCC5C025DA35E9A5FCC6000614494
:102BA00062326313640065006600670068006900B4
:102BB0006A006B006CFF6D816E476FAE70F9710635
:102BC000722173A974FE750176C077797800790057
:102BD0007A007B007C007D007E007F0000007FAAE1
:102BE000002E4071411B42E243A74438458D46F117
:102BF0004753480049004A004B004CCE4DE44E1D5F
:102C00004F595000510052005300002B200E21E478
:102C1000221D235824F8258D26F127542800290049
:102C20002A002B002CCE2DE42E1D2F593000310010
:102C3000320033000C0E0DE40E1D0F5810F8118DEC
:102C400012F11354140015001600170018CE19E4E1
:102C50001A1D1B591C001D001E001F00002A3400F5
:102C6000352A36D63750380039153A6B3B283C00A8
:102C70003D003E003F00403F41D5422943AF440064
:102C800045004600470000007F8C002D300231A334
:102C9000329A33CC340235A3369A37CC3800390611
:102CA0003AD33B723C003D003E003F0040004100F3
:102CB0004200430044FF4581464747AE48F9490674
:102CC0004A214BA94CFD4D554E8B4F0950005100E8
:102CD00052005300540055005600570000007FAAD0
:102CE000002A5C7F5DD55E295FAF60C06115626BB5
:102CF00063296400650066006700683F69D56A293A
:102D00006BAF6C006D006E006F00707F71D5722923
:102D100073AF74C07515766B7729780079007A00E7
:102D20007B007C3F7DD57E297FAF002B080009000A
:102D30000A000B00002E5471551B56E257A7583855
:102D4000598D5AF15B535C005D005E005F0060CE00
:102D500061E4621D6359640065006600670000005D
:102D60007F8C002E10001100120013000C000D804B
:102D70000E000F00080009000A000B00002B5C0287
:102D80005DA35E9A5FCC600261A3629A63CC64002B
:102D9000650666D36772680069006A006B006C00A4
:102DA0006D006E006F0070FF7181724773AE74FC2E
:102DB00075ED765E771078FD79557A8B7B097C000E
:102DC0007D007E007F00002C080009000A000B0037
:102DD000002E180019801A001B001C401D001E0048
:102DE0001F0020402100220023006C006D806E0037
:102DF0006F00704071007200730000007F003000AF
:102E00004C30030300007F00788000007F00030245
:102E10000111000000000000000000007F0003021C
:102E2000FE0500007F00030000007F004611000047
:102E30007F00030200007F00788000007F00610BAC
:102E400060017D117EFF0001510500000215530055
:102E50005400000000000000000000007F006687B2
:102E60007F8C00291800195A1A9D1BF81C001D5A46
:102E70001E9D1FF8200021002200230024002500B1
:102E800026002700002A240025802600270028008D
:102E900029802A002B003000314432323313002CB9
:102EA0000C000D000E000F001000110012001300A6
:102EB0001400158016001700180019001A001B00D6
:102EC0001C001D801E001F00200021002200230086
:102ED000280029802A002B002C002D002E002F0016
:102EE0003400358036003700380039003A003B00A6
:102EF000480049804A004B004C004D004E004F00F6
:102F00005C005D005EAE5FC360016112626E63983B
:102F10006408651366856762684069006A006B0033
:102F20006C046DC16EFF6F9374007580760077003E
:102F3000002D187B193E1A001B6D1C001D001EAED3
:102F40001FC32000210022002300240025002600AA
:102F50002700280029002A002B002C002D802E009D
:102F60002F00002E242025292600279400314840D8
:102F700049004A004B004C004D004E004F005000ED
:102F8000510052005300540055005600570058009D
:102F900059005A005B005C005D005E005F0060004D
:102FA00061006200630064006500660067006800FD
:102FB00069006A006B006C006D006E006F007000AD
:102FC000710072007300740075007600770078005D
:102FD00079007A007B007C007D007E007F0000325B
:102FE000080009000A000B000C000D000E000F0085
:102FF0001000110012001300140015001600170035
:10300000180019001A001B001C001D001E001F00E4
:103010002000210022002300240025002600270094
:10302000280029002A002B002C002D002E002F0044
:1030300030003100320033003400350036003700F4
:10304000380039003A003B003C003D003E003F00A4
:103050004000410042004300440045004600470054
:10306000480049004A004B004C004D004E004F0004
:1030700050005100520053005400550056005700B4
:10308000580059005A005B005C005D005E005F0064
:103090006000610062006300640065006600670014
:1030A000680069006A006B006C006D006E006F00C4
:1030B0007000710072007300740075007600770074
:1030C000780079007A007B007C007D007E007F0024
:1030D0000033080009000A000B000C000D000E0070
:1030E0000F0010001100120013001400150016004C
:1030F0001700180019001A001B001C001D001E00FC
:103100001F002000210022002300240025002600AB
:103110002700280029002A002B002C002D002E005B
:103120002F0030003100320033003400350036000B
:103130003700380039003A003B003C003D003E00BB
:103140003F0040004100420043004400450046006B
:103150004700480049004A004B004C004D004E001B
:103160004F005000510052005300540055005600CB
:103170005700580059005A005B005C005D005E007B
:103180005F0060006100620063006400650066002B
:103190006700680069006A006B006C006D006E00DB
:1031A0006F0070007100720073007400750076008B
:1031B0007700780079007A007B007C007D007E003B
:1031C0007F000034080009000A000B000C000D000D
:1031D0000E000F0010001100120013001400150063
:1031E00016001700180019001A001B001C001D0013
:1031F0001E001F00200021002200230024002500C3
:1032000026002700280029002A002B002C002D0072
:103210002E002F0030003100320033003400350022
:1032200036003700380039003A003B003C003D00D2
:103230003E003F0040004100420043004400450082
:1032400046004700480049004A004B004C004D0032
:103250004E004F00500051005200530054005500E2
:1032600056005700580059005A005B005C005D0092
:103270005E005F0060006100620063006400650042
:1032800066006700680069006A006B006C006D00F2
:103290006E006F00700071007200730074007500A2
:1032A00076007700780079007A007B007C007D0052
:1032B0007E007F000035080009000A000B000C00AA
:1032C0000D000E000F00100011001200130014007A
:1032D000150016001700180019001A001B001C002A
:1032E0001D001E001F0020002100220023002400DA
:1032F000250026002700280029002A002B002C008A
:103300002D002E002F003000310032003300340039
:10331000350036003700380039003A003B003C00E9
:103320003D003E003F004000410042004300440099
:10333000450046004700480049004A004B004C0049
:103340004D004E004F0050005100520053005400F9
:10335000550056005700580059005A005B005C00A9
:103360005D005E005F006000610062006300640059
:1033700065006600670000007FAA00241808190095
:103380001A001B001C001D001E001F002000210051
:103390002200230024002500260027002800290001
:1033A0002A002B002C082D002E002F0030003100A9
:1033B0003200330034003500360037003800390061
:1033C0003A003B003C003D003E003F004008410009
:1033D00042004300440045004600470048004900C1
:1033E0004A004B004C004D004E004F005000510071
:1033F0005200530054085500560057005800590019
:103400005A005B005C005D005E005F0060006100D0
:103410006200630064006500660067006808690078
:103420006A006B006C006D006E006F007000710030
:1034300072007300740075007600770078007900E0
:103440007A007B007C087D007E007F00002508005C
:1034500009000A000B000C000D000E000F00100008
:1034600011001200130014001500160017001808B0
:1034700019001A001B001C001D001E001F00200068
:103480002100220023002400250026002700280018
:1034900029002A002B002C082D002E002F003000C0
:1034A0003100320033003400350036003700380078
:1034B00039003A003B003C003D003E003F00400820
:1034C00041004200430044004500460047004800D8
:1034D00049004A004B004C004D004E004F00500088
:1034E0005100520053005408550056005700580030
:1034F00059005A005B005C005D005E005F006000E8
:10350000610062006300640065006600670068088F
:1035100069006A006B006C006D006E006F00700047
:1035200071007200730074007500760077007800F7
:1035300079007A007B007C087D007E007F000026F9
:10354000080009000A000B000C000D000E000F001F
:1035500010001100120013001400150016001700CF
:10356000180819001A001B001C001D001E001F0077
:10357000200021002200230024002500260027002F
:10358000280029002A002B002C082D002E002F00D7
:10359000300031003200330034003500360037008F
:1035A000380039003A003B003C003D003E003F003F
:1035B00040084100420043004400450046004700E7
:1035C000480049004A004B004C004D004E004F009F
:1035D0005000510052005300540855005600570047
:1035E000580059005A005B005C005D005E005F00FF
:1035F00060006100620063006400650066006700AF
:10360000680869006A006B006C006D006E006F0056
:10361000700071007200730074007500760077000E
:10362000780079007A007B007C087D007E007F00B6
:103630000027080009000A000B000C000D000E0016
:103640000F001000110012001300140015001600E6
:103650001700180819001A001B001C001D001E008E
:103660001F00200021002200230024002500260046
:103670002700280029002A002B002C082D002E00EE
:103680002F003000310032003300340035003600A6
:103690003700380039003A003B003C003D003E0056
:1036A0003F004008410042004300440045004600FE
:1036B0004700480049004A004B004C004D004E00B6
:1036C0004F0050005100520053005408550056005E
:1036D0005700580059005A005B005C005D005E0016
:1036E0005F006000610062006300640065006600C6
:1036F0006700680869006A006B006C006D006E006E
:103700006F00700071007200730074007500760025
:103710007700780079007A007B007C087D007E00CD
:103720007F000028080009000A000B000C000D00B3
:103730000E000F00100011001200130014001500FD
:1037400016001700180819001A001B001C001D00A5
:103750001E001F002000210022002300240025005D
:1037600026002700280029002A002B002C082D0005
:103770002E002F00300031003200330034003500BD
:1037800036003700380039003A003B003C003D006D
:103790003E003F0040084100420043004400450015
:1037A00046004700480049004A004B004C004D00CD
:1037B0004E004F0050005100520053005408550075
:1037C00056005700580059005A005B005C005D002D
:1037D0005E005F00600061006200630064006500DD
:1037E00066006700680869006A006B006C006D0085
:1037F0006E006F007000710072007300740075003D
:1038000076007700780079007A007B007C087D00E4
:103810007E007F000029080009000A000B000C0050
:103820000D000E000F001000110012001300140014
:10383000150016001700002E7C087D007E007F001A
:10384000002F080009000A000B000C000D000E00FC
:103850000F001000110012001300140015001600D4
:1038600017001C081D001E001F0020002100220060
:1038700023002400250026002700280029002A0014
:103880002B002C002D002E002F00002A4800490597
:103890004A834B2A4C004D054E834F2A5000510558
:1038A0005283532A547D55A15677573D588459A7C2
:1038B0005A045BDF00007F8C002B3400351B364B35
:1038C00037983800391B3A4B3B983C003D0D3EA6DB
:1038D0003F8640004100420043004400450046004E
:1038E000470048FF49814A474BAE4CF94D064E21EF
:1038F0004FA950FE510152C0537954005500560053
:103900005700580059005A005B00002D580259A377
:103910005A9A5BCC5C025DA35E9A5FCC6000614406
:103920006232631364006500660067006800690026
:103930006A006B006CFF6D816E476FAE70F97106A7
:10394000722173A974FE750176C0777978007900C9
:103950007A007B007C007D007E007F0000007FAA53
:10396000002E4006415542AF43D84406455546AF68
:1039700047D8480649554AAF4BD84C514DE54E7F84
:103980004F6550C251DE524153D5002B2058213B88
:10399000222F233D24A725C426D027C32858293BFE
:1039A0002A2F2B3D2C512DE52E7F2F6530C231DE85
:1039B000324133D50C580D3B0E2F0F3D10A711C4CB
:1039C00012D013C31458153B162F173D185119E583
:1039D0001A7F1B651CC21DDE1E411FD5002A340044
:1039E00035053683372A380039053A833B2A3C00AF
:1039F0003D053E833F2A407D41A14277433D4484BB
:103A000045A7460447DF00007F8C002D300231A31C
:103A1000329A33CC340235A3369A37CC3800390683
:103A20003AD33B723C003D003E003F004000410065
:103A30004200430044FF4581464747AE48F94906E6
:103A40004A214BA94CFE4D014EC04F795000510008
:103A500052005300540055005600570000007FAA42
:103A6000002A5C7D5DA65EFA5F6660826159620530
:103A7000639A647D65A666FA6766687D69A16A7760
:103A80006B3D6C846DA76E046FDF707D71A672FA5A
:103A90007366748275597605779A787D79A67AFA75
:103AA0007B667C7D7DA17E777F3D002B088409A706
:103AB0000A040BDF002E5406555556AF57D858064A
:103AC00059555AAF5BD85C065D555EAF5FD8605103
:103AD00061E5627F636564C265DE664167D50000AB
:103AE0007F8C002E10001180120013000C000D803E
:103AF0000E000F00080009800A000B00180A199137
:103B00001A441B171C031D071E361F06200321071E
:103B10002236230600007F0030004C3003030000F3
:103B20007F007880443B0008000000203400000043
:103B30004C1C0008783B000834000020D40500002D
:103B40005C1C00080000000000127A000000000069
:103B5000000000000102030406070809000000003D
:103B60000000000000000000000000000000000055
:083B700008FF00000000000046
:04000005080000B13E
:00000001FF
